{
  "address": "0x7B6ce59e1da48A9Fefba11aB95fD559fC8Ecff41",
  "abi": [
    {
      "inputs": [
        {
          "internalType": "string",
          "name": "baseUri",
          "type": "string"
        },
        {
          "internalType": "string",
          "name": "name",
          "type": "string"
        },
        {
          "internalType": "string",
          "name": "symbol",
          "type": "string"
        }
      ],
      "stateMutability": "nonpayable",
      "type": "constructor"
    },
    {
      "anonymous": false,
      "inputs": [
        {
          "indexed": true,
          "internalType": "address",
          "name": "owner",
          "type": "address"
        },
        {
          "indexed": true,
          "internalType": "address",
          "name": "approved",
          "type": "address"
        },
        {
          "indexed": true,
          "internalType": "uint256",
          "name": "tokenId",
          "type": "uint256"
        }
      ],
      "name": "Approval",
      "type": "event"
    },
    {
      "anonymous": false,
      "inputs": [
        {
          "indexed": true,
          "internalType": "address",
          "name": "owner",
          "type": "address"
        },
        {
          "indexed": true,
          "internalType": "address",
          "name": "operator",
          "type": "address"
        },
        {
          "indexed": false,
          "internalType": "bool",
          "name": "approved",
          "type": "bool"
        }
      ],
      "name": "ApprovalForAll",
      "type": "event"
    },
    {
      "anonymous": false,
      "inputs": [
        {
          "indexed": true,
          "internalType": "address",
          "name": "previousOwner",
          "type": "address"
        },
        {
          "indexed": true,
          "internalType": "address",
          "name": "newOwner",
          "type": "address"
        }
      ],
      "name": "OwnershipTransferred",
      "type": "event"
    },
    {
      "anonymous": false,
      "inputs": [
        {
          "indexed": true,
          "internalType": "address",
          "name": "from",
          "type": "address"
        },
        {
          "indexed": true,
          "internalType": "address",
          "name": "to",
          "type": "address"
        },
        {
          "indexed": true,
          "internalType": "uint256",
          "name": "tokenId",
          "type": "uint256"
        }
      ],
      "name": "Transfer",
      "type": "event"
    },
    {
      "inputs": [
        {
          "internalType": "address",
          "name": "to",
          "type": "address"
        },
        {
          "internalType": "uint256",
          "name": "tokenId",
          "type": "uint256"
        }
      ],
      "name": "approve",
      "outputs": [],
      "stateMutability": "nonpayable",
      "type": "function"
    },
    {
      "inputs": [
        {
          "internalType": "address",
          "name": "owner",
          "type": "address"
        }
      ],
      "name": "balanceOf",
      "outputs": [
        {
          "internalType": "uint256",
          "name": "",
          "type": "uint256"
        }
      ],
      "stateMutability": "view",
      "type": "function"
    },
    {
      "inputs": [
        {
          "internalType": "uint256",
          "name": "tokenId",
          "type": "uint256"
        }
      ],
      "name": "getApproved",
      "outputs": [
        {
          "internalType": "address",
          "name": "",
          "type": "address"
        }
      ],
      "stateMutability": "view",
      "type": "function"
    },
    {
      "inputs": [
        {
          "internalType": "uint256",
          "name": "tokenId",
          "type": "uint256"
        },
        {
          "internalType": "bytes32",
          "name": "merkleRoot",
          "type": "bytes32"
        }
      ],
      "name": "getSignMessage",
      "outputs": [
        {
          "internalType": "bytes32",
          "name": "",
          "type": "bytes32"
        }
      ],
      "stateMutability": "view",
      "type": "function"
    },
    {
      "inputs": [
        {
          "internalType": "address",
          "name": "owner",
          "type": "address"
        },
        {
          "internalType": "address",
          "name": "operator",
          "type": "address"
        }
      ],
      "name": "isApprovedForAll",
      "outputs": [
        {
          "internalType": "bool",
          "name": "",
          "type": "bool"
        }
      ],
      "stateMutability": "view",
      "type": "function"
    },
    {
      "inputs": [
        {
          "internalType": "uint256",
          "name": "",
          "type": "uint256"
        }
      ],
      "name": "merkleRoots",
      "outputs": [
        {
          "internalType": "bytes32",
          "name": "",
          "type": "bytes32"
        }
      ],
      "stateMutability": "view",
      "type": "function"
    },
    {
      "inputs": [
        {
          "internalType": "address[]",
          "name": "users",
          "type": "address[]"
        },
        {
          "internalType": "uint256[]",
          "name": "tokenIds",
          "type": "uint256[]"
        },
        {
          "internalType": "bytes32[]",
          "name": "initMerkleRoots",
          "type": "bytes32[]"
        }
      ],
      "name": "mint",
      "outputs": [],
      "stateMutability": "nonpayable",
      "type": "function"
    },
    {
      "inputs": [],
      "name": "name",
      "outputs": [
        {
          "internalType": "string",
          "name": "",
          "type": "string"
        }
      ],
      "stateMutability": "view",
      "type": "function"
    },
    {
      "inputs": [],
      "name": "owner",
      "outputs": [
        {
          "internalType": "address",
          "name": "",
          "type": "address"
        }
      ],
      "stateMutability": "view",
      "type": "function"
    },
    {
      "inputs": [
        {
          "internalType": "uint256",
          "name": "tokenId",
          "type": "uint256"
        }
      ],
      "name": "ownerOf",
      "outputs": [
        {
          "internalType": "address",
          "name": "",
          "type": "address"
        }
      ],
      "stateMutability": "view",
      "type": "function"
    },
    {
      "inputs": [],
      "name": "renounceOwnership",
      "outputs": [],
      "stateMutability": "nonpayable",
      "type": "function"
    },
    {
      "inputs": [
        {
          "internalType": "address",
          "name": "from",
          "type": "address"
        },
        {
          "internalType": "address",
          "name": "to",
          "type": "address"
        },
        {
          "internalType": "uint256",
          "name": "tokenId",
          "type": "uint256"
        }
      ],
      "name": "safeTransferFrom",
      "outputs": [],
      "stateMutability": "nonpayable",
      "type": "function"
    },
    {
      "inputs": [
        {
          "internalType": "address",
          "name": "from",
          "type": "address"
        },
        {
          "internalType": "address",
          "name": "to",
          "type": "address"
        },
        {
          "internalType": "uint256",
          "name": "tokenId",
          "type": "uint256"
        },
        {
          "internalType": "bytes",
          "name": "data",
          "type": "bytes"
        }
      ],
      "name": "safeTransferFrom",
      "outputs": [],
      "stateMutability": "nonpayable",
      "type": "function"
    },
    {
      "inputs": [
        {
          "internalType": "address",
          "name": "operator",
          "type": "address"
        },
        {
          "internalType": "bool",
          "name": "approved",
          "type": "bool"
        }
      ],
      "name": "setApprovalForAll",
      "outputs": [],
      "stateMutability": "nonpayable",
      "type": "function"
    },
    {
      "inputs": [
        {
          "internalType": "bytes4",
          "name": "interfaceId",
          "type": "bytes4"
        }
      ],
      "name": "supportsInterface",
      "outputs": [
        {
          "internalType": "bool",
          "name": "",
          "type": "bool"
        }
      ],
      "stateMutability": "view",
      "type": "function"
    },
    {
      "inputs": [],
      "name": "symbol",
      "outputs": [
        {
          "internalType": "string",
          "name": "",
          "type": "string"
        }
      ],
      "stateMutability": "view",
      "type": "function"
    },
    {
      "inputs": [
        {
          "internalType": "uint256",
          "name": "index",
          "type": "uint256"
        }
      ],
      "name": "tokenByIndex",
      "outputs": [
        {
          "internalType": "uint256",
          "name": "",
          "type": "uint256"
        }
      ],
      "stateMutability": "view",
      "type": "function"
    },
    {
      "inputs": [
        {
          "internalType": "address",
          "name": "owner",
          "type": "address"
        },
        {
          "internalType": "uint256",
          "name": "index",
          "type": "uint256"
        }
      ],
      "name": "tokenOfOwnerByIndex",
      "outputs": [
        {
          "internalType": "uint256",
          "name": "",
          "type": "uint256"
        }
      ],
      "stateMutability": "view",
      "type": "function"
    },
    {
      "inputs": [
        {
          "internalType": "uint256",
          "name": "tokenId",
          "type": "uint256"
        }
      ],
      "name": "tokenURI",
      "outputs": [
        {
          "internalType": "string",
          "name": "",
          "type": "string"
        }
      ],
      "stateMutability": "view",
      "type": "function"
    },
    {
      "inputs": [],
      "name": "totalSupply",
      "outputs": [
        {
          "internalType": "uint256",
          "name": "",
          "type": "uint256"
        }
      ],
      "stateMutability": "view",
      "type": "function"
    },
    {
      "inputs": [
        {
          "internalType": "address",
          "name": "from",
          "type": "address"
        },
        {
          "internalType": "address",
          "name": "to",
          "type": "address"
        },
        {
          "internalType": "uint256",
          "name": "tokenId",
          "type": "uint256"
        }
      ],
      "name": "transferFrom",
      "outputs": [],
      "stateMutability": "nonpayable",
      "type": "function"
    },
    {
      "inputs": [
        {
          "internalType": "address",
          "name": "newOwner",
          "type": "address"
        }
      ],
      "name": "transferOwnership",
      "outputs": [],
      "stateMutability": "nonpayable",
      "type": "function"
    },
    {
      "inputs": [
        {
          "internalType": "uint256",
          "name": "tokenId",
          "type": "uint256"
        },
        {
          "internalType": "bytes32",
          "name": "merkleRoot",
          "type": "bytes32"
        },
        {
          "internalType": "bytes",
          "name": "signature",
          "type": "bytes"
        }
      ],
      "name": "updateMerkleRoot",
      "outputs": [],
      "stateMutability": "nonpayable",
      "type": "function"
    },
    {
      "inputs": [
        {
          "internalType": "uint256",
          "name": "tokenId",
          "type": "uint256"
        },
        {
          "internalType": "bytes32",
          "name": "data",
          "type": "bytes32"
        },
        {
          "internalType": "bytes32[]",
          "name": "proof",
          "type": "bytes32[]"
        }
      ],
      "name": "verifyData",
      "outputs": [
        {
          "internalType": "bool",
          "name": "",
          "type": "bool"
        }
      ],
      "stateMutability": "view",
      "type": "function"
    }
  ],
  "transactionHash": "0xccbd7413f6a57b0138d0f288ed782bb4478bcaad1c3c09d021f29b6690b3fe75",
  "args": [
    "https://dsid.com/profile/",
    "Digital Student Identity",
    "DSID"
  ],
  "numDeployments": 3,
  "solcInputHash": "32efd961ec3e3425cae76e73949f3a65",
  "bytecode": "0x6101406040523480156200001257600080fd5b506040516200279938038062002799833981016040819052620000359162000274565b6040518060400160405280600781526020016650726f66696c6560c81b815250604051806040016040528060058152602001640302e312e360dc1b8152508383816000908162000086919062000394565b50600162000095828262000394565b505050620000b2620000ac6200015960201b60201c565b6200015d565b815160209283012081519183019190912060e08290526101008190524660a0818152604080517f8b73c3c69bb8fe3d512ecc4cf759cc79239f7b179b0ffacaa9a75d522b39400f818801819052818301969096526060810194909452608080850193909352308483018190528151808603909301835260c09485019091528151919095012090529190915261012052600b6200014f848262000394565b5050505062000460565b3390565b600a80546001600160a01b038381166001600160a01b0319831681179093556040519116919082907f8be0079c531659141344cd1fd0a4f28419497f9722a3daafe3b4186f6b6457e090600090a35050565b634e487b7160e01b600052604160045260246000fd5b600082601f830112620001d757600080fd5b81516001600160401b0380821115620001f457620001f4620001af565b604051601f8301601f19908116603f011681019082821181831017156200021f576200021f620001af565b816040528381526020925086838588010111156200023c57600080fd5b600091505b8382101562000260578582018301518183018401529082019062000241565b600093810190920192909252949350505050565b6000806000606084860312156200028a57600080fd5b83516001600160401b0380821115620002a257600080fd5b620002b087838801620001c5565b94506020860151915080821115620002c757600080fd5b620002d587838801620001c5565b93506040860151915080821115620002ec57600080fd5b50620002fb86828701620001c5565b9150509250925092565b600181811c908216806200031a57607f821691505b6020821081036200033b57634e487b7160e01b600052602260045260246000fd5b50919050565b601f8211156200038f57600081815260208120601f850160051c810160208610156200036a5750805b601f850160051c820191505b818110156200038b5782815560010162000376565b5050505b505050565b81516001600160401b03811115620003b057620003b0620001af565b620003c881620003c1845462000305565b8462000341565b602080601f831160018114620004005760008415620003e75750858301515b600019600386901b1c1916600185901b1785556200038b565b600085815260208120601f198616915b82811015620004315788860151825594840194600190910190840162000410565b5085821015620004505787850151600019600388901b60f8161c191681555b5050505050600190811b01905550565b60805160a05160c05160e05161010051610120516122e9620004b06000396000611723015260006117720152600061174d015260006116a6015260006116d0015260006116fa01526122e96000f3fe608060405234801561001057600080fd5b50600436106101985760003560e01c806370a08231116100e3578063a3293eb41161008c578063e3855dbd11610066578063e3855dbd14610351578063e985e9c514610364578063f2fde38b146103a057600080fd5b8063a3293eb414610318578063b88d4fde1461032b578063c87b56dd1461033e57600080fd5b80638da5cb5b116100bd5780638da5cb5b146102ec57806395d89b41146102fd578063a22cb4651461030557600080fd5b806370a08231146102b1578063715018a6146102c457806371c5ecb1146102cc57600080fd5b806323b872dd116101455780634f6ccce71161011f5780634f6ccce7146102785780636352211e1461028b57806364d1178b1461029e57600080fd5b806323b872dd1461023f5780632f745c591461025257806342842e0e1461026557600080fd5b8063095ea7b311610176578063095ea7b31461020557806318160ddd1461021a57806318eaea061461022c57600080fd5b806301ffc9a71461019d57806306fdde03146101c5578063081812fc146101da575b600080fd5b6101b06101ab366004611ce2565b6103b3565b60405190151581526020015b60405180910390f35b6101cd6103f7565b6040516101bc9190611d4f565b6101ed6101e8366004611d62565b610489565b6040516001600160a01b0390911681526020016101bc565b610218610213366004611d97565b6104b0565b005b6008545b6040519081526020016101bc565b61021861023a366004611e78565b6105e6565b61021861024d366004611ec8565b61067a565b61021e610260366004611d97565b6106f1565b610218610273366004611ec8565b610799565b61021e610286366004611d62565b6107b4565b6101ed610299366004611d62565b610858565b6102186102ac366004611f93565b6108bd565b61021e6102bf36600461206d565b6109de565b610218610a78565b61021e6102da366004611d62565b600c6020526000908152604090205481565b600a546001600160a01b03166101ed565b6101cd610a8c565b610218610313366004612088565b610a9b565b61021e6103263660046120c4565b610aaa565b6102186103393660046120e6565b610b0d565b6101cd61034c366004611d62565b610b85565b6101b061035f36600461214e565b610beb565b6101b0610372366004612194565b6001600160a01b03918216600090815260056020908152604080832093909416825291909152205460ff1690565b6102186103ae36600461206d565b610c0e565b60006001600160e01b031982167f780e9d630000000000000000000000000000000000000000000000000000000014806103f157506103f182610c9e565b92915050565b606060008054610406906121c7565b80601f0160208091040260200160405190810160405280929190818152602001828054610432906121c7565b801561047f5780601f106104545761010080835404028352916020019161047f565b820191906000526020600020905b81548152906001019060200180831161046257829003601f168201915b5050505050905090565b600061049482610d39565b506000908152600460205260409020546001600160a01b031690565b60006104bb82610858565b9050806001600160a01b0316836001600160a01b0316036105495760405162461bcd60e51b815260206004820152602160248201527f4552433732313a20617070726f76616c20746f2063757272656e74206f776e6560448201527f720000000000000000000000000000000000000000000000000000000000000060648201526084015b60405180910390fd5b336001600160a01b038216148061056557506105658133610372565b6105d75760405162461bcd60e51b815260206004820152603d60248201527f4552433732313a20617070726f76652063616c6c6572206973206e6f7420746f60448201527f6b656e206f776e6572206f7220617070726f76656420666f7220616c6c0000006064820152608401610540565b6105e18383610d9d565b505050565b60006105f28484610aaa565b90506105fe8183610e18565b6001600160a01b031661061085610858565b6001600160a01b0316146106665760405162461bcd60e51b815260206004820152601160248201527f496e76616c6964205369676e61747572650000000000000000000000000000006044820152606401610540565b50506000918252600c602052604090912055565b6106843382610e3c565b6106e65760405162461bcd60e51b815260206004820152602d60248201527f4552433732313a2063616c6c6572206973206e6f7420746f6b656e206f776e6560448201526c1c881bdc88185c1c1c9bdd9959609a1b6064820152608401610540565b6105e1838383610eba565b60006106fc836109de565b82106107705760405162461bcd60e51b815260206004820152602b60248201527f455243373231456e756d657261626c653a206f776e657220696e646578206f7560448201527f74206f6620626f756e64730000000000000000000000000000000000000000006064820152608401610540565b506001600160a01b03919091166000908152600660209081526040808320938352929052205490565b6105e183838360405180602001604052806000815250610b0d565b60006107bf60085490565b82106108335760405162461bcd60e51b815260206004820152602c60248201527f455243373231456e756d657261626c653a20676c6f62616c20696e646578206f60448201527f7574206f6620626f756e647300000000000000000000000000000000000000006064820152608401610540565b6008828154811061084657610846612201565b90600052602060002001549050919050565b6000818152600260205260408120546001600160a01b0316806103f15760405162461bcd60e51b815260206004820152601860248201527f4552433732313a20696e76616c696420746f6b656e20494400000000000000006044820152606401610540565b6108c56110cd565b60005b83518110156109d8576108f38482815181106108e6576108e6612201565b60200260200101516109de565b156109405760405162461bcd60e51b815260206004820152601560248201527f4f6e6c79206f6e65204e465420706572207573657200000000000000000000006044820152606401610540565b81818151811061095257610952612201565b6020026020010151600c600085848151811061097057610970612201565b60200260200101518152602001908152602001600020819055506109c684828151811061099f5761099f612201565b60200260200101518483815181106109b9576109b9612201565b6020026020010151611127565b806109d081612217565b9150506108c8565b50505050565b60006001600160a01b038216610a5c5760405162461bcd60e51b815260206004820152602960248201527f4552433732313a2061646472657373207a65726f206973206e6f74206120766160448201527f6c6964206f776e657200000000000000000000000000000000000000000000006064820152608401610540565b506001600160a01b031660009081526003602052604090205490565b610a806110cd565b610a8a6000611141565b565b606060018054610406906121c7565b610aa63383836111a0565b5050565b604080517f08046644f15b956324e3c38bd28d7de0a2782e96ef49b4dddce41803660068f1602082015290810183905260608101829052600090610b06906080016040516020818303038152906040528051906020012061126e565b9392505050565b610b173383610e3c565b610b795760405162461bcd60e51b815260206004820152602d60248201527f4552433732313a2063616c6c6572206973206e6f7420746f6b656e206f776e6560448201526c1c881bdc88185c1c1c9bdd9959609a1b6064820152608401610540565b6109d8848484846112d7565b6060610b9082610d39565b6000610b9a611355565b90506000815111610bba5760405180602001604052806000815250610b06565b80610bc484611364565b604051602001610bd592919061223e565b6040516020818303038152906040529392505050565b6000838152600c6020526040812054610c0690839085611404565b949350505050565b610c166110cd565b6001600160a01b038116610c925760405162461bcd60e51b815260206004820152602660248201527f4f776e61626c653a206e6577206f776e657220697320746865207a65726f206160448201527f64647265737300000000000000000000000000000000000000000000000000006064820152608401610540565b610c9b81611141565b50565b60006001600160e01b031982167f80ac58cd000000000000000000000000000000000000000000000000000000001480610d0157506001600160e01b031982167f5b5e139f00000000000000000000000000000000000000000000000000000000145b806103f157507f01ffc9a7000000000000000000000000000000000000000000000000000000006001600160e01b03198316146103f1565b6000818152600260205260409020546001600160a01b0316610c9b5760405162461bcd60e51b815260206004820152601860248201527f4552433732313a20696e76616c696420746f6b656e20494400000000000000006044820152606401610540565b6000818152600460205260409020805473ffffffffffffffffffffffffffffffffffffffff19166001600160a01b0384169081179091558190610ddf82610858565b6001600160a01b03167f8c5be1e5ebec7d5bd14f71427d1e84f3dd0314c0f7b2291e5b200ac8c7c3b92560405160405180910390a45050565b6000806000610e27858561141a565b91509150610e348161145f565b509392505050565b600080610e4883610858565b9050806001600160a01b0316846001600160a01b03161480610e8f57506001600160a01b0380821660009081526005602090815260408083209388168352929052205460ff165b80610c065750836001600160a01b0316610ea884610489565b6001600160a01b031614949350505050565b826001600160a01b0316610ecd82610858565b6001600160a01b031614610f315760405162461bcd60e51b815260206004820152602560248201527f4552433732313a207472616e736665722066726f6d20696e636f72726563742060448201526437bbb732b960d91b6064820152608401610540565b6001600160a01b038216610fac5760405162461bcd60e51b8152602060048201526024808201527f4552433732313a207472616e7366657220746f20746865207a65726f2061646460448201527f72657373000000000000000000000000000000000000000000000000000000006064820152608401610540565b610fb983838360016115c4565b826001600160a01b0316610fcc82610858565b6001600160a01b0316146110305760405162461bcd60e51b815260206004820152602560248201527f4552433732313a207472616e736665722066726f6d20696e636f72726563742060448201526437bbb732b960d91b6064820152608401610540565b6000818152600460209081526040808320805473ffffffffffffffffffffffffffffffffffffffff199081169091556001600160a01b0387811680865260038552838620805460001901905590871680865283862080546001019055868652600290945282852080549092168417909155905184937fddf252ad1be2c89b69c2b068fc378daa952ba7f163c4a11628f55a4df523b3ef91a4505050565b600a546001600160a01b03163314610a8a5760405162461bcd60e51b815260206004820181905260248201527f4f776e61626c653a2063616c6c6572206973206e6f7420746865206f776e65726044820152606401610540565b610aa682826040518060200160405280600081525061161b565b600a80546001600160a01b0383811673ffffffffffffffffffffffffffffffffffffffff19831681179093556040519116919082907f8be0079c531659141344cd1fd0a4f28419497f9722a3daafe3b4186f6b6457e090600090a35050565b816001600160a01b0316836001600160a01b0316036112015760405162461bcd60e51b815260206004820152601960248201527f4552433732313a20617070726f766520746f2063616c6c6572000000000000006044820152606401610540565b6001600160a01b03838116600081815260056020908152604080832094871680845294825291829020805460ff191686151590811790915591519182527f17307eab39ab6107e8899845ad3d59bd9653f200f220920489ca2b5937696c31910160405180910390a3505050565b60006103f161127b611699565b836040517f19010000000000000000000000000000000000000000000000000000000000006020820152602281018390526042810182905260009060620160405160208183030381529060405280519060200120905092915050565b6112e2848484610eba565b6112ee848484846117c0565b6109d85760405162461bcd60e51b815260206004820152603260248201527f4552433732313a207472616e7366657220746f206e6f6e20455243373231526560448201527131b2b4bb32b91034b6b83632b6b2b73a32b960711b6064820152608401610540565b6060600b8054610406906121c7565b606060006113718361190c565b600101905060008167ffffffffffffffff81111561139157611391611dc1565b6040519080825280601f01601f1916602001820160405280156113bb576020820181803683370190505b5090508181016020015b600019017f3031323334353637383961626364656600000000000000000000000000000000600a86061a8153600a85049450846113c557509392505050565b60008261141185846119ee565b14949350505050565b60008082516041036114505760208301516040840151606085015160001a61144487828585611a33565b94509450505050611458565b506000905060025b9250929050565b60008160048111156114735761147361226d565b0361147b5750565b600181600481111561148f5761148f61226d565b036114dc5760405162461bcd60e51b815260206004820152601860248201527f45434453413a20696e76616c6964207369676e617475726500000000000000006044820152606401610540565b60028160048111156114f0576114f061226d565b0361153d5760405162461bcd60e51b815260206004820152601f60248201527f45434453413a20696e76616c6964207369676e6174757265206c656e677468006044820152606401610540565b60038160048111156115515761155161226d565b03610c9b5760405162461bcd60e51b815260206004820152602260248201527f45434453413a20696e76616c6964207369676e6174757265202773272076616c60448201527f75650000000000000000000000000000000000000000000000000000000000006064820152608401610540565b6001600160a01b038416156109d85760405162461bcd60e51b815260206004820152601960248201527f5472616e73666572206973206e6f7420616c6c6f77616e6365000000000000006044820152606401610540565b6116258383611af7565b61163260008484846117c0565b6105e15760405162461bcd60e51b815260206004820152603260248201527f4552433732313a207472616e7366657220746f206e6f6e20455243373231526560448201527131b2b4bb32b91034b6b83632b6b2b73a32b960711b6064820152608401610540565b6000306001600160a01b037f0000000000000000000000000000000000000000000000000000000000000000161480156116f257507f000000000000000000000000000000000000000000000000000000000000000046145b1561171c57507f000000000000000000000000000000000000000000000000000000000000000090565b50604080517f00000000000000000000000000000000000000000000000000000000000000006020808301919091527f0000000000000000000000000000000000000000000000000000000000000000828401527f000000000000000000000000000000000000000000000000000000000000000060608301524660808301523060a0808401919091528351808403909101815260c0909201909252805191012090565b60006001600160a01b0384163b1561190157604051630a85bd0160e11b81526001600160a01b0385169063150b7a0290611804903390899088908890600401612283565b6020604051808303816000875af192505050801561183f575060408051601f3d908101601f1916820190925261183c918101906122bf565b60015b6118e7573d80801561186d576040519150601f19603f3d011682016040523d82523d6000602084013e611872565b606091505b5080516000036118df5760405162461bcd60e51b815260206004820152603260248201527f4552433732313a207472616e7366657220746f206e6f6e20455243373231526560448201527131b2b4bb32b91034b6b83632b6b2b73a32b960711b6064820152608401610540565b805181602001fd5b6001600160e01b031916630a85bd0160e11b149050610c06565b506001949350505050565b6000807a184f03e93ff9f4daa797ed6e38ed64bf6a1f0100000000000000008310611955577a184f03e93ff9f4daa797ed6e38ed64bf6a1f010000000000000000830492506040015b6d04ee2d6d415b85acef81000000008310611981576d04ee2d6d415b85acef8100000000830492506020015b662386f26fc10000831061199f57662386f26fc10000830492506010015b6305f5e10083106119b7576305f5e100830492506008015b61271083106119cb57612710830492506004015b606483106119dd576064830492506002015b600a83106103f15760010192915050565b600081815b8451811015610e3457611a1f82868381518110611a1257611a12612201565b6020026020010151611c9d565b915080611a2b81612217565b9150506119f3565b6000807f7fffffffffffffffffffffffffffffff5d576e7357a4501ddfe92f46681b20a0831115611a6a5750600090506003611aee565b6040805160008082526020820180845289905260ff881692820192909252606081018690526080810185905260019060a0016020604051602081039080840390855afa158015611abe573d6000803e3d6000fd5b5050604051601f1901519150506001600160a01b038116611ae757600060019250925050611aee565b9150600090505b94509492505050565b6001600160a01b038216611b4d5760405162461bcd60e51b815260206004820181905260248201527f4552433732313a206d696e7420746f20746865207a65726f20616464726573736044820152606401610540565b6000818152600260205260409020546001600160a01b031615611bb25760405162461bcd60e51b815260206004820152601c60248201527f4552433732313a20746f6b656e20616c7265616479206d696e746564000000006044820152606401610540565b611bc06000838360016115c4565b6000818152600260205260409020546001600160a01b031615611c255760405162461bcd60e51b815260206004820152601c60248201527f4552433732313a20746f6b656e20616c7265616479206d696e746564000000006044820152606401610540565b6001600160a01b0382166000818152600360209081526040808320805460010190558483526002909152808220805473ffffffffffffffffffffffffffffffffffffffff19168417905551839291907fddf252ad1be2c89b69c2b068fc378daa952ba7f163c4a11628f55a4df523b3ef908290a45050565b6000818310611cb9576000828152602084905260409020610b06565b6000838152602083905260409020610b06565b6001600160e01b031981168114610c9b57600080fd5b600060208284031215611cf457600080fd5b8135610b0681611ccc565b60005b83811015611d1a578181015183820152602001611d02565b50506000910152565b60008151808452611d3b816020860160208601611cff565b601f01601f19169290920160200192915050565b602081526000610b066020830184611d23565b600060208284031215611d7457600080fd5b5035919050565b80356001600160a01b0381168114611d9257600080fd5b919050565b60008060408385031215611daa57600080fd5b611db383611d7b565b946020939093013593505050565b634e487b7160e01b600052604160045260246000fd5b604051601f8201601f1916810167ffffffffffffffff81118282101715611e0057611e00611dc1565b604052919050565b600082601f830112611e1957600080fd5b813567ffffffffffffffff811115611e3357611e33611dc1565b611e46601f8201601f1916602001611dd7565b818152846020838601011115611e5b57600080fd5b816020850160208301376000918101602001919091529392505050565b600080600060608486031215611e8d57600080fd5b8335925060208401359150604084013567ffffffffffffffff811115611eb257600080fd5b611ebe86828701611e08565b9150509250925092565b600080600060608486031215611edd57600080fd5b611ee684611d7b565b9250611ef460208501611d7b565b9150604084013590509250925092565b600067ffffffffffffffff821115611f1e57611f1e611dc1565b5060051b60200190565b600082601f830112611f3957600080fd5b81356020611f4e611f4983611f04565b611dd7565b82815260059290921b84018101918181019086841115611f6d57600080fd5b8286015b84811015611f885780358352918301918301611f71565b509695505050505050565b600080600060608486031215611fa857600080fd5b833567ffffffffffffffff80821115611fc057600080fd5b818601915086601f830112611fd457600080fd5b81356020611fe4611f4983611f04565b82815260059290921b8401810191818101908a84111561200357600080fd5b948201945b838610156120285761201986611d7b565b82529482019490820190612008565b9750508701359250508082111561203e57600080fd5b61204a87838801611f28565b9350604086013591508082111561206057600080fd5b50611ebe86828701611f28565b60006020828403121561207f57600080fd5b610b0682611d7b565b6000806040838503121561209b57600080fd5b6120a483611d7b565b9150602083013580151581146120b957600080fd5b809150509250929050565b600080604083850312156120d757600080fd5b50508035926020909101359150565b600080600080608085870312156120fc57600080fd5b61210585611d7b565b935061211360208601611d7b565b925060408501359150606085013567ffffffffffffffff81111561213657600080fd5b61214287828801611e08565b91505092959194509250565b60008060006060848603121561216357600080fd5b8335925060208401359150604084013567ffffffffffffffff81111561218857600080fd5b611ebe86828701611f28565b600080604083850312156121a757600080fd5b6121b083611d7b565b91506121be60208401611d7b565b90509250929050565b600181811c908216806121db57607f821691505b6020821081036121fb57634e487b7160e01b600052602260045260246000fd5b50919050565b634e487b7160e01b600052603260045260246000fd5b60006001820161223757634e487b7160e01b600052601160045260246000fd5b5060010190565b60008351612250818460208801611cff565b835190830190612264818360208801611cff565b01949350505050565b634e487b7160e01b600052602160045260246000fd5b60006001600160a01b038087168352808616602084015250836040830152608060608301526122b56080830184611d23565b9695505050505050565b6000602082840312156122d157600080fd5b8151610b0681611ccc56fea164736f6c6343000812000a",
  "devdoc": {
    "events": {
      "Approval(address,address,uint256)": {
        "details": "Emitted when `owner` enables `approved` to manage the `tokenId` token."
      },
      "ApprovalForAll(address,address,bool)": {
        "details": "Emitted when `owner` enables or disables (`approved`) `operator` to manage all of its assets."
      },
      "Transfer(address,address,uint256)": {
        "details": "Emitted when `tokenId` token is transferred from `from` to `to`."
      }
    },
    "kind": "dev",
    "methods": {
      "approve(address,uint256)": {
        "details": "See {IERC721-approve}."
      },
      "balanceOf(address)": {
        "details": "See {IERC721-balanceOf}."
      },
      "getApproved(uint256)": {
        "details": "See {IERC721-getApproved}."
      },
      "isApprovedForAll(address,address)": {
        "details": "See {IERC721-isApprovedForAll}."
      },
      "name()": {
        "details": "See {IERC721Metadata-name}."
      },
      "owner()": {
        "details": "Returns the address of the current owner."
      },
      "ownerOf(uint256)": {
        "details": "See {IERC721-ownerOf}."
      },
      "renounceOwnership()": {
        "details": "Leaves the contract without owner. It will not be possible to call `onlyOwner` functions anymore. Can only be called by the current owner. NOTE: Renouncing ownership will leave the contract without an owner, thereby removing any functionality that is only available to the owner."
      },
      "safeTransferFrom(address,address,uint256)": {
        "details": "See {IERC721-safeTransferFrom}."
      },
      "safeTransferFrom(address,address,uint256,bytes)": {
        "details": "See {IERC721-safeTransferFrom}."
      },
      "setApprovalForAll(address,bool)": {
        "details": "See {IERC721-setApprovalForAll}."
      },
      "supportsInterface(bytes4)": {
        "details": "See {IERC165-supportsInterface}."
      },
      "symbol()": {
        "details": "See {IERC721Metadata-symbol}."
      },
      "tokenByIndex(uint256)": {
        "details": "See {IERC721Enumerable-tokenByIndex}."
      },
      "tokenOfOwnerByIndex(address,uint256)": {
        "details": "See {IERC721Enumerable-tokenOfOwnerByIndex}."
      },
      "tokenURI(uint256)": {
        "details": "See {IERC721Metadata-tokenURI}."
      },
      "totalSupply()": {
        "details": "See {IERC721Enumerable-totalSupply}."
      },
      "transferFrom(address,address,uint256)": {
        "details": "See {IERC721-transferFrom}."
      },
      "transferOwnership(address)": {
        "details": "Transfers ownership of the contract to a new account (`newOwner`). Can only be called by the current owner."
      }
    },
    "version": 1
  },
  "userdoc": {
    "kind": "user",
    "methods": {},
    "version": 1
  },
  "storageLayout": {
    "storage": [
      {
        "astId": 138,
        "contract": "contracts/Profile.sol:Profile",
        "label": "_name",
        "offset": 0,
        "slot": "0",
        "type": "t_string_storage"
      },
      {
        "astId": 140,
        "contract": "contracts/Profile.sol:Profile",
        "label": "_symbol",
        "offset": 0,
        "slot": "1",
        "type": "t_string_storage"
      },
      {
        "astId": 144,
        "contract": "contracts/Profile.sol:Profile",
        "label": "_owners",
        "offset": 0,
        "slot": "2",
        "type": "t_mapping(t_uint256,t_address)"
      },
      {
        "astId": 148,
        "contract": "contracts/Profile.sol:Profile",
        "label": "_balances",
        "offset": 0,
        "slot": "3",
        "type": "t_mapping(t_address,t_uint256)"
      },
      {
        "astId": 152,
        "contract": "contracts/Profile.sol:Profile",
        "label": "_tokenApprovals",
        "offset": 0,
        "slot": "4",
        "type": "t_mapping(t_uint256,t_address)"
      },
      {
        "astId": 158,
        "contract": "contracts/Profile.sol:Profile",
        "label": "_operatorApprovals",
        "offset": 0,
        "slot": "5",
        "type": "t_mapping(t_address,t_mapping(t_address,t_bool))"
      },
      {
        "astId": 1188,
        "contract": "contracts/Profile.sol:Profile",
        "label": "_ownedTokens",
        "offset": 0,
        "slot": "6",
        "type": "t_mapping(t_address,t_mapping(t_uint256,t_uint256))"
      },
      {
        "astId": 1192,
        "contract": "contracts/Profile.sol:Profile",
        "label": "_ownedTokensIndex",
        "offset": 0,
        "slot": "7",
        "type": "t_mapping(t_uint256,t_uint256)"
      },
      {
        "astId": 1195,
        "contract": "contracts/Profile.sol:Profile",
        "label": "_allTokens",
        "offset": 0,
        "slot": "8",
        "type": "t_array(t_uint256)dyn_storage"
      },
      {
        "astId": 1199,
        "contract": "contracts/Profile.sol:Profile",
        "label": "_allTokensIndex",
        "offset": 0,
        "slot": "9",
        "type": "t_mapping(t_uint256,t_uint256)"
      },
      {
        "astId": 7,
        "contract": "contracts/Profile.sol:Profile",
        "label": "_owner",
        "offset": 0,
        "slot": "10",
        "type": "t_address"
      },
      {
        "astId": 4045,
        "contract": "contracts/Profile.sol:Profile",
        "label": "_baseUri",
        "offset": 0,
        "slot": "11",
        "type": "t_string_storage"
      },
      {
        "astId": 4049,
        "contract": "contracts/Profile.sol:Profile",
        "label": "merkleRoots",
        "offset": 0,
        "slot": "12",
        "type": "t_mapping(t_uint256,t_bytes32)"
      }
    ],
    "types": {
      "t_address": {
        "encoding": "inplace",
        "label": "address",
        "numberOfBytes": "20"
      },
      "t_array(t_uint256)dyn_storage": {
        "base": "t_uint256",
        "encoding": "dynamic_array",
        "label": "uint256[]",
        "numberOfBytes": "32"
      },
      "t_bool": {
        "encoding": "inplace",
        "label": "bool",
        "numberOfBytes": "1"
      },
      "t_bytes32": {
        "encoding": "inplace",
        "label": "bytes32",
        "numberOfBytes": "32"
      },
      "t_mapping(t_address,t_bool)": {
        "encoding": "mapping",
        "key": "t_address",
        "label": "mapping(address => bool)",
        "numberOfBytes": "32",
        "value": "t_bool"
      },
      "t_mapping(t_address,t_mapping(t_address,t_bool))": {
        "encoding": "mapping",
        "key": "t_address",
        "label": "mapping(address => mapping(address => bool))",
        "numberOfBytes": "32",
        "value": "t_mapping(t_address,t_bool)"
      },
      "t_mapping(t_address,t_mapping(t_uint256,t_uint256))": {
        "encoding": "mapping",
        "key": "t_address",
        "label": "mapping(address => mapping(uint256 => uint256))",
        "numberOfBytes": "32",
        "value": "t_mapping(t_uint256,t_uint256)"
      },
      "t_mapping(t_address,t_uint256)": {
        "encoding": "mapping",
        "key": "t_address",
        "label": "mapping(address => uint256)",
        "numberOfBytes": "32",
        "value": "t_uint256"
      },
      "t_mapping(t_uint256,t_address)": {
        "encoding": "mapping",
        "key": "t_uint256",
        "label": "mapping(uint256 => address)",
        "numberOfBytes": "32",
        "value": "t_address"
      },
      "t_mapping(t_uint256,t_bytes32)": {
        "encoding": "mapping",
        "key": "t_uint256",
        "label": "mapping(uint256 => bytes32)",
        "numberOfBytes": "32",
        "value": "t_bytes32"
      },
      "t_mapping(t_uint256,t_uint256)": {
        "encoding": "mapping",
        "key": "t_uint256",
        "label": "mapping(uint256 => uint256)",
        "numberOfBytes": "32",
        "value": "t_uint256"
      },
      "t_string_storage": {
        "encoding": "bytes",
        "label": "string",
        "numberOfBytes": "32"
      },
      "t_uint256": {
        "encoding": "inplace",
        "label": "uint256",
        "numberOfBytes": "32"
      }
    }
  }
}